{
  "contracts/PathnerEscrow.sol": {
    "PathnerEscrow": {
      "abi": [
        {
          "inputs": [],
          "stateMutability": "nonpayable",
          "type": "constructor"
        },
        {
          "anonymous": false,
          "inputs": [
            {
              "indexed": true,
              "internalType": "address",
              "name": "creator",
              "type": "address"
            },
            {
              "indexed": true,
              "internalType": "address[]",
              "name": "recepients",
              "type": "address[]"
            },
            {
              "indexed": true,
              "internalType": "uint256",
              "name": "amount",
              "type": "uint256"
            },
            {
              "indexed": false,
              "internalType": "uint256",
              "name": "claims",
              "type": "uint256"
            }
          ],
          "name": "BountyPayment",
          "type": "event"
        },
        {
          "anonymous": false,
          "inputs": [
            {
              "indexed": true,
              "internalType": "address",
              "name": "creator",
              "type": "address"
            },
            {
              "indexed": false,
              "internalType": "address",
              "name": "token",
              "type": "address"
            },
            {
              "indexed": true,
              "internalType": "uint256",
              "name": "amount",
              "type": "uint256"
            },
            {
              "indexed": true,
              "internalType": "uint256",
              "name": "claims",
              "type": "uint256"
            }
          ],
          "name": "Created",
          "type": "event"
        },
        {
          "anonymous": false,
          "inputs": [
            {
              "indexed": true,
              "internalType": "address",
              "name": "creator",
              "type": "address"
            },
            {
              "indexed": true,
              "internalType": "uint256",
              "name": "credits",
              "type": "uint256"
            }
          ],
          "name": "CreditPurchase",
          "type": "event"
        },
        {
          "anonymous": false,
          "inputs": [
            {
              "indexed": true,
              "internalType": "uint256",
              "name": "rate",
              "type": "uint256"
            }
          ],
          "name": "RateUpdate",
          "type": "event"
        },
        {
          "anonymous": false,
          "inputs": [
            {
              "indexed": true,
              "internalType": "address",
              "name": "maker",
              "type": "address"
            },
            {
              "indexed": true,
              "internalType": "uint256",
              "name": "amount",
              "type": "uint256"
            }
          ],
          "name": "Withdrawn",
          "type": "event"
        },
        {
          "inputs": [
            {
              "internalType": "uint256",
              "name": "amount",
              "type": "uint256"
            }
          ],
          "name": "buyCredits",
          "outputs": [],
          "stateMutability": "nonpayable",
          "type": "function"
        },
        {
          "inputs": [
            {
              "internalType": "uint256",
              "name": "oldAmount",
              "type": "uint256"
            },
            {
              "internalType": "uint256",
              "name": "newAmount",
              "type": "uint256"
            }
          ],
          "name": "configRate",
          "outputs": [],
          "stateMutability": "nonpayable",
          "type": "function"
        },
        {
          "inputs": [
            {
              "internalType": "address",
              "name": "token",
              "type": "address"
            },
            {
              "internalType": "uint256",
              "name": "claims",
              "type": "uint256"
            },
            {
              "internalType": "uint256",
              "name": "amount",
              "type": "uint256"
            }
          ],
          "name": "createBounties",
          "outputs": [],
          "stateMutability": "nonpayable",
          "type": "function"
        },
        {
          "inputs": [],
          "name": "deprecate",
          "outputs": [],
          "stateMutability": "nonpayable",
          "type": "function"
        },
        {
          "inputs": [
            {
              "internalType": "address[]",
              "name": "recepients",
              "type": "address[]"
            },
            {
              "internalType": "address",
              "name": "token",
              "type": "address"
            },
            {
              "internalType": "uint256",
              "name": "postId",
              "type": "uint256"
            }
          ],
          "name": "payBounty",
          "outputs": [],
          "stateMutability": "nonpayable",
          "type": "function"
        },
        {
          "inputs": [
            {
              "internalType": "address",
              "name": "to",
              "type": "address"
            },
            {
              "internalType": "uint256",
              "name": "amount",
              "type": "uint256"
            }
          ],
          "name": "pullFunds",
          "outputs": [],
          "stateMutability": "nonpayable",
          "type": "function"
        },
        {
          "inputs": [],
          "name": "reinit",
          "outputs": [],
          "stateMutability": "nonpayable",
          "type": "function"
        },
        {
          "inputs": [
            {
              "internalType": "address",
              "name": "",
              "type": "address"
            }
          ],
          "name": "subscription",
          "outputs": [
            {
              "internalType": "uint256",
              "name": "",
              "type": "uint256"
            }
          ],
          "stateMutability": "view",
          "type": "function"
        },
        {
          "inputs": [
            {
              "internalType": "address",
              "name": "",
              "type": "address"
            }
          ],
          "name": "taskList",
          "outputs": [
            {
              "internalType": "uint256",
              "name": "",
              "type": "uint256"
            }
          ],
          "stateMutability": "view",
          "type": "function"
        }
      ],
      "evm": {
        "bytecode": {
          "linkReferences": {},
          "object": "60a08060405234605b5773036cbd53842c5426634e7929541ec2318f3dcf7e608052624c4b406000556001600455600380546001600160a01b03191633179055610ead908161006182396080518181816105880152610aef0152f35b600080fdfe6080604052600436101561001257600080fd5b60003560e01c80630423a84714610c505780630c4dfe3f14610a705780630fcc0c2814610a1b5780632cc1dece146109b65780634ef47cf114610951578063745ef5ed1461065b578063c482ceaf14610606578063c6cdbcbb146104a35763d6d25b5c1461007f57600080fd5b346102b15760607ffffffffffffffffffffffffffffffffffffffffffffffffffffffffffffffffc3601126102b15760043567ffffffffffffffff81116102b157366023820112156102b157806004013567ffffffffffffffff81116102b1576024820191602436918360051b0101116102b1576024359073ffffffffffffffffffffffffffffffffffffffff82168092036102b15760443592600a8211610445573360005260076020526040600020846000526020528273ffffffffffffffffffffffffffffffffffffffff60406000205416146101b7575b60646040517f08c379a000000000000000000000000000000000000000000000000000000000815260206004820152600960248201527f54727920616761696e00000000000000000000000000000000000000000000006044820152fd5b3360005260076020526040600020846000526020526101de82600260406000200154610ddd565b3360009081526007602090815260408083208884529091529020600281015460019091015490949190851561041657859004958161038a57505060005b848111156102b65750505b60405191829182916000905b80821061027557505050039020906040519081527f41494c628cc2b40c428c8c7f02544722ca11f241efba325787ce161f6607ac4360203392a438808080610159565b9193509183359073ffffffffffffffffffffffffffffffffffffffff82168092036102b157602081600193829352019401920184939291610232565b600080fd5b6103266020876102cf6102ca858989610e17565b610e56565b60405193849283927fa9059cbb000000000000000000000000000000000000000000000000000000008452600484016020909392919373ffffffffffffffffffffffffffffffffffffffff60408201951681520152565b03816000875af190811561037e57600091610350575b50156102b15761034b90610dea565b61021b565b610371915060203d8111610377575b6103698183610d77565b810190610db8565b3861033c565b503d61035f565b6040513d6000823e3d90fd5b33600052600760205260406000209060005260205260026040600020015560005b838111156103ba575050610226565b6103ce6020876102cf6102ca858989610e17565b03816000875af190811561037e576000916103f8575b50156102b1576103f390610dea565b6103ab565b610410915060203d8111610377576103698183610d77565b386103e4565b7f4e487b7100000000000000000000000000000000000000000000000000000000600052601260045260246000fd5b60646040517f08c379a000000000000000000000000000000000000000000000000000000000815260206004820152600c60248201527f313020617420612074696d6500000000000000000000000000000000000000006044820152fd5b346102b15760407ffffffffffffffffffffffffffffffffffffffffffffffffffffffffffffffffc3601126102b1576104da610cef565b61056d6020602435809361050773ffffffffffffffffffffffffffffffffffffffff600354163314610d12565b61051382600154610ddd565b60015560405193849283927fa9059cbb000000000000000000000000000000000000000000000000000000008452600484016020909392919373ffffffffffffffffffffffffffffffffffffffff60408201951681520152565b0381600073ffffffffffffffffffffffffffffffffffffffff7f0000000000000000000000000000000000000000000000000000000000000000165af190811561037e576000916105e7575b50156102b157337f7084f5476618d8e60b11ef0d7d3f06914655adb8793e28ff7f018d4c76d505d5600080a3005b610600915060203d602011610377576103698183610d77565b826105b9565b346102b15760007ffffffffffffffffffffffffffffffffffffffffffffffffffffffffffffffffc3601126102b15773ffffffffffffffffffffffffffffffffffffffff6003541633036102b1576001600455005b346102b15760607ffffffffffffffffffffffffffffffffffffffffffffffffffffffffffffffffc3601126102b157610692610cef565b602435906044359082151580610948575b156108ea573360005260056020526040600020546000541161088c576040517f23b872dd0000000000000000000000000000000000000000000000000000000081523360048201523060248201526044810183905273ffffffffffffffffffffffffffffffffffffffff91909116906020816064816000865af190811561037e5760009161086d575b50156102b15760005433600052600560205261074e6040600020918254610ddd565b905533600052600660205260406000205460405190606082019082821067ffffffffffffffff83111761083e5760029160405283835260208301858152604084019187835233600052600760205260406000209060005260205273ffffffffffffffffffffffffffffffffffffffff60406000209451167fffffffffffffffffffffffff000000000000000000000000000000000000000085541617845551600184015551910155336000526006602052604060002061080e8154610dea565b90556040519081527f7b5c62c6d40d7529b5a806d3480360990bb603feb8eefc47d0f213c4d4e6e06660203392a4005b7f4e487b7100000000000000000000000000000000000000000000000000000000600052604160045260246000fd5b610886915060203d602011610377576103698183610d77565b8461072c565b60646040517f08c379a000000000000000000000000000000000000000000000000000000000815260206004820152601360248201527f696e73756666696369656e7420637265646974000000000000000000000000006044820152fd5b60646040517f08c379a000000000000000000000000000000000000000000000000000000000815260206004820152600e60248201527f696e76616c6964207265776172640000000000000000000000000000000000006044820152fd5b508115156106a3565b346102b15760207ffffffffffffffffffffffffffffffffffffffffffffffffffffffffffffffffc3601126102b15773ffffffffffffffffffffffffffffffffffffffff61099d610cef565b1660005260056020526020604060002054604051908152f35b346102b15760207ffffffffffffffffffffffffffffffffffffffffffffffffffffffffffffffffc3601126102b15773ffffffffffffffffffffffffffffffffffffffff610a02610cef565b1660005260066020526020604060002054604051908152f35b346102b15760007ffffffffffffffffffffffffffffffffffffffffffffffffffffffffffffffffc3601126102b15773ffffffffffffffffffffffffffffffffffffffff6003541633036102b1576000600455005b346102b15760207ffffffffffffffffffffffffffffffffffffffffffffffffffffffffffffffffc3601126102b157600435624c4b408110610bf2576040517f23b872dd0000000000000000000000000000000000000000000000000000000081523360048201523060248201526044810182905260208160648160007f000000000000000000000000000000000000000000000000000000000000000073ffffffffffffffffffffffffffffffffffffffff165af190811561037e57600091610bd3575b50156102b157610b4781600254610dd0565b600255610b5681600154610dd0565b600155603281029080820460321490151715610ba45733600052600560205280604060002055337f170a2f20525ade9b15f6a5b687b073bf13551aa056eb05f8686ffbb9e4ab895c600080a3005b7f4e487b7100000000000000000000000000000000000000000000000000000000600052601160045260246000fd5b610bec915060203d602011610377576103698183610d77565b82610b35565b60646040517f08c379a000000000000000000000000000000000000000000000000000000000815260206004820152600b60248201527f66656520746f6f206c6f770000000000000000000000000000000000000000006044820152fd5b346102b15760407ffffffffffffffffffffffffffffffffffffffffffffffffffffffffffffffffc3601126102b157602435610ca573ffffffffffffffffffffffffffffffffffffffff600354163314610d12565b6000546004351480610ce2575b156102b157806000557f9b831dcbec52dfe52b187da18aae08651dfb726e9baf49d5d9eae6fa264db3a1600080a2005b50624c4b40811015610cb2565b6004359073ffffffffffffffffffffffffffffffffffffffff821682036102b157565b15610d1957565b60646040517f08c379a000000000000000000000000000000000000000000000000000000000815260206004820152600d60248201527f6e6f7420746865206d616b6572000000000000000000000000000000000000006044820152fd5b90601f7fffffffffffffffffffffffffffffffffffffffffffffffffffffffffffffffe0910116810190811067ffffffffffffffff82111761083e57604052565b908160209103126102b1575180151581036102b15790565b91908201809211610ba457565b91908203918211610ba457565b7fffffffffffffffffffffffffffffffffffffffffffffffffffffffffffffffff8114610ba45760010190565b9190811015610e275760051b0190565b7f4e487b7100000000000000000000000000000000000000000000000000000000600052603260045260246000fd5b3573ffffffffffffffffffffffffffffffffffffffff811681036102b1579056fea2646970667358221220590210c0e8a1ebeb2d1c2b441f4b20956bb288fb074c749bb08348f84fa90bdd64736f6c634300081b0033",
          "opcodes": "PUSH1 0xA0 DUP1 PUSH1 0x40 MSTORE CALLVALUE PUSH1 0x5B JUMPI PUSH20 0x36CBD53842C5426634E7929541EC2318F3DCF7E PUSH1 0x80 MSTORE PUSH3 0x4C4B40 PUSH1 0x0 SSTORE PUSH1 0x1 PUSH1 0x4 SSTORE PUSH1 0x3 DUP1 SLOAD PUSH1 0x1 PUSH1 0x1 PUSH1 0xA0 SHL SUB NOT AND CALLER OR SWAP1 SSTORE PUSH2 0xEAD SWAP1 DUP2 PUSH2 0x61 DUP3 CODECOPY PUSH1 0x80 MLOAD DUP2 DUP2 DUP2 PUSH2 0x588 ADD MSTORE PUSH2 0xAEF ADD MSTORE RETURN JUMPDEST PUSH1 0x0 DUP1 REVERT INVALID PUSH1 0x80 PUSH1 0x40 MSTORE PUSH1 0x4 CALLDATASIZE LT ISZERO PUSH2 0x12 JUMPI PUSH1 0x0 DUP1 REVERT JUMPDEST PUSH1 0x0 CALLDATALOAD PUSH1 0xE0 SHR DUP1 PUSH4 0x423A847 EQ PUSH2 0xC50 JUMPI DUP1 PUSH4 0xC4DFE3F EQ PUSH2 0xA70 JUMPI DUP1 PUSH4 0xFCC0C28 EQ PUSH2 0xA1B JUMPI DUP1 PUSH4 0x2CC1DECE EQ PUSH2 0x9B6 JUMPI DUP1 PUSH4 0x4EF47CF1 EQ PUSH2 0x951 JUMPI DUP1 PUSH4 0x745EF5ED EQ PUSH2 0x65B JUMPI DUP1 PUSH4 0xC482CEAF EQ PUSH2 0x606 JUMPI DUP1 PUSH4 0xC6CDBCBB EQ PUSH2 0x4A3 JUMPI PUSH4 0xD6D25B5C EQ PUSH2 0x7F JUMPI PUSH1 0x0 DUP1 REVERT JUMPDEST CALLVALUE PUSH2 0x2B1 JUMPI PUSH1 0x60 PUSH32 0xFFFFFFFFFFFFFFFFFFFFFFFFFFFFFFFFFFFFFFFFFFFFFFFFFFFFFFFFFFFFFFFC CALLDATASIZE ADD SLT PUSH2 0x2B1 JUMPI PUSH1 0x4 CALLDATALOAD PUSH8 0xFFFFFFFFFFFFFFFF DUP2 GT PUSH2 0x2B1 JUMPI CALLDATASIZE PUSH1 0x23 DUP3 ADD SLT ISZERO PUSH2 0x2B1 JUMPI DUP1 PUSH1 0x4 ADD CALLDATALOAD PUSH8 0xFFFFFFFFFFFFFFFF DUP2 GT PUSH2 0x2B1 JUMPI PUSH1 0x24 DUP3 ADD SWAP2 PUSH1 0x24 CALLDATASIZE SWAP2 DUP4 PUSH1 0x5 SHL ADD ADD GT PUSH2 0x2B1 JUMPI PUSH1 0x24 CALLDATALOAD SWAP1 PUSH20 0xFFFFFFFFFFFFFFFFFFFFFFFFFFFFFFFFFFFFFFFF DUP3 AND DUP1 SWAP3 SUB PUSH2 0x2B1 JUMPI PUSH1 0x44 CALLDATALOAD SWAP3 PUSH1 0xA DUP3 GT PUSH2 0x445 JUMPI CALLER PUSH1 0x0 MSTORE PUSH1 0x7 PUSH1 0x20 MSTORE PUSH1 0x40 PUSH1 0x0 KECCAK256 DUP5 PUSH1 0x0 MSTORE PUSH1 0x20 MSTORE DUP3 PUSH20 0xFFFFFFFFFFFFFFFFFFFFFFFFFFFFFFFFFFFFFFFF PUSH1 0x40 PUSH1 0x0 KECCAK256 SLOAD AND EQ PUSH2 0x1B7 JUMPI JUMPDEST PUSH1 0x64 PUSH1 0x40 MLOAD PUSH32 0x8C379A000000000000000000000000000000000000000000000000000000000 DUP2 MSTORE PUSH1 0x20 PUSH1 0x4 DUP3 ADD MSTORE PUSH1 0x9 PUSH1 0x24 DUP3 ADD MSTORE PUSH32 0x54727920616761696E0000000000000000000000000000000000000000000000 PUSH1 0x44 DUP3 ADD MSTORE REVERT JUMPDEST CALLER PUSH1 0x0 MSTORE PUSH1 0x7 PUSH1 0x20 MSTORE PUSH1 0x40 PUSH1 0x0 KECCAK256 DUP5 PUSH1 0x0 MSTORE PUSH1 0x20 MSTORE PUSH2 0x1DE DUP3 PUSH1 0x2 PUSH1 0x40 PUSH1 0x0 KECCAK256 ADD SLOAD PUSH2 0xDDD JUMP JUMPDEST CALLER PUSH1 0x0 SWAP1 DUP2 MSTORE PUSH1 0x7 PUSH1 0x20 SWAP1 DUP2 MSTORE PUSH1 0x40 DUP1 DUP4 KECCAK256 DUP9 DUP5 MSTORE SWAP1 SWAP2 MSTORE SWAP1 KECCAK256 PUSH1 0x2 DUP2 ADD SLOAD PUSH1 0x1 SWAP1 SWAP2 ADD SLOAD SWAP1 SWAP5 SWAP2 SWAP1 DUP6 ISZERO PUSH2 0x416 JUMPI DUP6 SWAP1 DIV SWAP6 DUP2 PUSH2 0x38A JUMPI POP POP PUSH1 0x0 JUMPDEST DUP5 DUP2 GT ISZERO PUSH2 0x2B6 JUMPI POP POP JUMPDEST PUSH1 0x40 MLOAD SWAP2 DUP3 SWAP2 DUP3 SWAP2 PUSH1 0x0 SWAP1 JUMPDEST DUP1 DUP3 LT PUSH2 0x275 JUMPI POP POP POP SUB SWAP1 KECCAK256 SWAP1 PUSH1 0x40 MLOAD SWAP1 DUP2 MSTORE PUSH32 0x41494C628CC2B40C428C8C7F02544722CA11F241EFBA325787CE161F6607AC43 PUSH1 0x20 CALLER SWAP3 LOG4 CODESIZE DUP1 DUP1 DUP1 PUSH2 0x159 JUMP JUMPDEST SWAP2 SWAP4 POP SWAP2 DUP4 CALLDATALOAD SWAP1 PUSH20 0xFFFFFFFFFFFFFFFFFFFFFFFFFFFFFFFFFFFFFFFF DUP3 AND DUP1 SWAP3 SUB PUSH2 0x2B1 JUMPI PUSH1 0x20 DUP2 PUSH1 0x1 SWAP4 DUP3 SWAP4 MSTORE ADD SWAP5 ADD SWAP3 ADD DUP5 SWAP4 SWAP3 SWAP2 PUSH2 0x232 JUMP JUMPDEST PUSH1 0x0 DUP1 REVERT JUMPDEST PUSH2 0x326 PUSH1 0x20 DUP8 PUSH2 0x2CF PUSH2 0x2CA DUP6 DUP10 DUP10 PUSH2 0xE17 JUMP JUMPDEST PUSH2 0xE56 JUMP JUMPDEST PUSH1 0x40 MLOAD SWAP4 DUP5 SWAP3 DUP4 SWAP3 PUSH32 0xA9059CBB00000000000000000000000000000000000000000000000000000000 DUP5 MSTORE PUSH1 0x4 DUP5 ADD PUSH1 0x20 SWAP1 SWAP4 SWAP3 SWAP2 SWAP4 PUSH20 0xFFFFFFFFFFFFFFFFFFFFFFFFFFFFFFFFFFFFFFFF PUSH1 0x40 DUP3 ADD SWAP6 AND DUP2 MSTORE ADD MSTORE JUMP JUMPDEST SUB DUP2 PUSH1 0x0 DUP8 GAS CALL SWAP1 DUP2 ISZERO PUSH2 0x37E JUMPI PUSH1 0x0 SWAP2 PUSH2 0x350 JUMPI JUMPDEST POP ISZERO PUSH2 0x2B1 JUMPI PUSH2 0x34B SWAP1 PUSH2 0xDEA JUMP JUMPDEST PUSH2 0x21B JUMP JUMPDEST PUSH2 0x371 SWAP2 POP PUSH1 0x20 RETURNDATASIZE DUP2 GT PUSH2 0x377 JUMPI JUMPDEST PUSH2 0x369 DUP2 DUP4 PUSH2 0xD77 JUMP JUMPDEST DUP2 ADD SWAP1 PUSH2 0xDB8 JUMP JUMPDEST CODESIZE PUSH2 0x33C JUMP JUMPDEST POP RETURNDATASIZE PUSH2 0x35F JUMP JUMPDEST PUSH1 0x40 MLOAD RETURNDATASIZE PUSH1 0x0 DUP3 RETURNDATACOPY RETURNDATASIZE SWAP1 REVERT JUMPDEST CALLER PUSH1 0x0 MSTORE PUSH1 0x7 PUSH1 0x20 MSTORE PUSH1 0x40 PUSH1 0x0 KECCAK256 SWAP1 PUSH1 0x0 MSTORE PUSH1 0x20 MSTORE PUSH1 0x2 PUSH1 0x40 PUSH1 0x0 KECCAK256 ADD SSTORE PUSH1 0x0 JUMPDEST DUP4 DUP2 GT ISZERO PUSH2 0x3BA JUMPI POP POP PUSH2 0x226 JUMP JUMPDEST PUSH2 0x3CE PUSH1 0x20 DUP8 PUSH2 0x2CF PUSH2 0x2CA DUP6 DUP10 DUP10 PUSH2 0xE17 JUMP JUMPDEST SUB DUP2 PUSH1 0x0 DUP8 GAS CALL SWAP1 DUP2 ISZERO PUSH2 0x37E JUMPI PUSH1 0x0 SWAP2 PUSH2 0x3F8 JUMPI JUMPDEST POP ISZERO PUSH2 0x2B1 JUMPI PUSH2 0x3F3 SWAP1 PUSH2 0xDEA JUMP JUMPDEST PUSH2 0x3AB JUMP JUMPDEST PUSH2 0x410 SWAP2 POP PUSH1 0x20 RETURNDATASIZE DUP2 GT PUSH2 0x377 JUMPI PUSH2 0x369 DUP2 DUP4 PUSH2 0xD77 JUMP JUMPDEST CODESIZE PUSH2 0x3E4 JUMP JUMPDEST PUSH32 0x4E487B7100000000000000000000000000000000000000000000000000000000 PUSH1 0x0 MSTORE PUSH1 0x12 PUSH1 0x4 MSTORE PUSH1 0x24 PUSH1 0x0 REVERT JUMPDEST PUSH1 0x64 PUSH1 0x40 MLOAD PUSH32 0x8C379A000000000000000000000000000000000000000000000000000000000 DUP2 MSTORE PUSH1 0x20 PUSH1 0x4 DUP3 ADD MSTORE PUSH1 0xC PUSH1 0x24 DUP3 ADD MSTORE PUSH32 0x313020617420612074696D650000000000000000000000000000000000000000 PUSH1 0x44 DUP3 ADD MSTORE REVERT JUMPDEST CALLVALUE PUSH2 0x2B1 JUMPI PUSH1 0x40 PUSH32 0xFFFFFFFFFFFFFFFFFFFFFFFFFFFFFFFFFFFFFFFFFFFFFFFFFFFFFFFFFFFFFFFC CALLDATASIZE ADD SLT PUSH2 0x2B1 JUMPI PUSH2 0x4DA PUSH2 0xCEF JUMP JUMPDEST PUSH2 0x56D PUSH1 0x20 PUSH1 0x24 CALLDATALOAD DUP1 SWAP4 PUSH2 0x507 PUSH20 0xFFFFFFFFFFFFFFFFFFFFFFFFFFFFFFFFFFFFFFFF PUSH1 0x3 SLOAD AND CALLER EQ PUSH2 0xD12 JUMP JUMPDEST PUSH2 0x513 DUP3 PUSH1 0x1 SLOAD PUSH2 0xDDD JUMP JUMPDEST PUSH1 0x1 SSTORE PUSH1 0x40 MLOAD SWAP4 DUP5 SWAP3 DUP4 SWAP3 PUSH32 0xA9059CBB00000000000000000000000000000000000000000000000000000000 DUP5 MSTORE PUSH1 0x4 DUP5 ADD PUSH1 0x20 SWAP1 SWAP4 SWAP3 SWAP2 SWAP4 PUSH20 0xFFFFFFFFFFFFFFFFFFFFFFFFFFFFFFFFFFFFFFFF PUSH1 0x40 DUP3 ADD SWAP6 AND DUP2 MSTORE ADD MSTORE JUMP JUMPDEST SUB DUP2 PUSH1 0x0 PUSH20 0xFFFFFFFFFFFFFFFFFFFFFFFFFFFFFFFFFFFFFFFF PUSH32 0x0 AND GAS CALL SWAP1 DUP2 ISZERO PUSH2 0x37E JUMPI PUSH1 0x0 SWAP2 PUSH2 0x5E7 JUMPI JUMPDEST POP ISZERO PUSH2 0x2B1 JUMPI CALLER PUSH32 0x7084F5476618D8E60B11EF0D7D3F06914655ADB8793E28FF7F018D4C76D505D5 PUSH1 0x0 DUP1 LOG3 STOP JUMPDEST PUSH2 0x600 SWAP2 POP PUSH1 0x20 RETURNDATASIZE PUSH1 0x20 GT PUSH2 0x377 JUMPI PUSH2 0x369 DUP2 DUP4 PUSH2 0xD77 JUMP JUMPDEST DUP3 PUSH2 0x5B9 JUMP JUMPDEST CALLVALUE PUSH2 0x2B1 JUMPI PUSH1 0x0 PUSH32 0xFFFFFFFFFFFFFFFFFFFFFFFFFFFFFFFFFFFFFFFFFFFFFFFFFFFFFFFFFFFFFFFC CALLDATASIZE ADD SLT PUSH2 0x2B1 JUMPI PUSH20 0xFFFFFFFFFFFFFFFFFFFFFFFFFFFFFFFFFFFFFFFF PUSH1 0x3 SLOAD AND CALLER SUB PUSH2 0x2B1 JUMPI PUSH1 0x1 PUSH1 0x4 SSTORE STOP JUMPDEST CALLVALUE PUSH2 0x2B1 JUMPI PUSH1 0x60 PUSH32 0xFFFFFFFFFFFFFFFFFFFFFFFFFFFFFFFFFFFFFFFFFFFFFFFFFFFFFFFFFFFFFFFC CALLDATASIZE ADD SLT PUSH2 0x2B1 JUMPI PUSH2 0x692 PUSH2 0xCEF JUMP JUMPDEST PUSH1 0x24 CALLDATALOAD SWAP1 PUSH1 0x44 CALLDATALOAD SWAP1 DUP3 ISZERO ISZERO DUP1 PUSH2 0x948 JUMPI JUMPDEST ISZERO PUSH2 0x8EA JUMPI CALLER PUSH1 0x0 MSTORE PUSH1 0x5 PUSH1 0x20 MSTORE PUSH1 0x40 PUSH1 0x0 KECCAK256 SLOAD PUSH1 0x0 SLOAD GT PUSH2 0x88C JUMPI PUSH1 0x40 MLOAD PUSH32 0x23B872DD00000000000000000000000000000000000000000000000000000000 DUP2 MSTORE CALLER PUSH1 0x4 DUP3 ADD MSTORE ADDRESS PUSH1 0x24 DUP3 ADD MSTORE PUSH1 0x44 DUP2 ADD DUP4 SWAP1 MSTORE PUSH20 0xFFFFFFFFFFFFFFFFFFFFFFFFFFFFFFFFFFFFFFFF SWAP2 SWAP1 SWAP2 AND SWAP1 PUSH1 0x20 DUP2 PUSH1 0x64 DUP2 PUSH1 0x0 DUP7 GAS CALL SWAP1 DUP2 ISZERO PUSH2 0x37E JUMPI PUSH1 0x0 SWAP2 PUSH2 0x86D JUMPI JUMPDEST POP ISZERO PUSH2 0x2B1 JUMPI PUSH1 0x0 SLOAD CALLER PUSH1 0x0 MSTORE PUSH1 0x5 PUSH1 0x20 MSTORE PUSH2 0x74E PUSH1 0x40 PUSH1 0x0 KECCAK256 SWAP2 DUP3 SLOAD PUSH2 0xDDD JUMP JUMPDEST SWAP1 SSTORE CALLER PUSH1 0x0 MSTORE PUSH1 0x6 PUSH1 0x20 MSTORE PUSH1 0x40 PUSH1 0x0 KECCAK256 SLOAD PUSH1 0x40 MLOAD SWAP1 PUSH1 0x60 DUP3 ADD SWAP1 DUP3 DUP3 LT PUSH8 0xFFFFFFFFFFFFFFFF DUP4 GT OR PUSH2 0x83E JUMPI PUSH1 0x2 SWAP2 PUSH1 0x40 MSTORE DUP4 DUP4 MSTORE PUSH1 0x20 DUP4 ADD DUP6 DUP2 MSTORE PUSH1 0x40 DUP5 ADD SWAP2 DUP8 DUP4 MSTORE CALLER PUSH1 0x0 MSTORE PUSH1 0x7 PUSH1 0x20 MSTORE PUSH1 0x40 PUSH1 0x0 KECCAK256 SWAP1 PUSH1 0x0 MSTORE PUSH1 0x20 MSTORE PUSH20 0xFFFFFFFFFFFFFFFFFFFFFFFFFFFFFFFFFFFFFFFF PUSH1 0x40 PUSH1 0x0 KECCAK256 SWAP5 MLOAD AND PUSH32 0xFFFFFFFFFFFFFFFFFFFFFFFF0000000000000000000000000000000000000000 DUP6 SLOAD AND OR DUP5 SSTORE MLOAD PUSH1 0x1 DUP5 ADD SSTORE MLOAD SWAP2 ADD SSTORE CALLER PUSH1 0x0 MSTORE PUSH1 0x6 PUSH1 0x20 MSTORE PUSH1 0x40 PUSH1 0x0 KECCAK256 PUSH2 0x80E DUP2 SLOAD PUSH2 0xDEA JUMP JUMPDEST SWAP1 SSTORE PUSH1 0x40 MLOAD SWAP1 DUP2 MSTORE PUSH32 0x7B5C62C6D40D7529B5A806D3480360990BB603FEB8EEFC47D0F213C4D4E6E066 PUSH1 0x20 CALLER SWAP3 LOG4 STOP JUMPDEST PUSH32 0x4E487B7100000000000000000000000000000000000000000000000000000000 PUSH1 0x0 MSTORE PUSH1 0x41 PUSH1 0x4 MSTORE PUSH1 0x24 PUSH1 0x0 REVERT JUMPDEST PUSH2 0x886 SWAP2 POP PUSH1 0x20 RETURNDATASIZE PUSH1 0x20 GT PUSH2 0x377 JUMPI PUSH2 0x369 DUP2 DUP4 PUSH2 0xD77 JUMP JUMPDEST DUP5 PUSH2 0x72C JUMP JUMPDEST PUSH1 0x64 PUSH1 0x40 MLOAD PUSH32 0x8C379A000000000000000000000000000000000000000000000000000000000 DUP2 MSTORE PUSH1 0x20 PUSH1 0x4 DUP3 ADD MSTORE PUSH1 0x13 PUSH1 0x24 DUP3 ADD MSTORE PUSH32 0x696E73756666696369656E742063726564697400000000000000000000000000 PUSH1 0x44 DUP3 ADD MSTORE REVERT JUMPDEST PUSH1 0x64 PUSH1 0x40 MLOAD PUSH32 0x8C379A000000000000000000000000000000000000000000000000000000000 DUP2 MSTORE PUSH1 0x20 PUSH1 0x4 DUP3 ADD MSTORE PUSH1 0xE PUSH1 0x24 DUP3 ADD MSTORE PUSH32 0x696E76616C696420726577617264000000000000000000000000000000000000 PUSH1 0x44 DUP3 ADD MSTORE REVERT JUMPDEST POP DUP2 ISZERO ISZERO PUSH2 0x6A3 JUMP JUMPDEST CALLVALUE PUSH2 0x2B1 JUMPI PUSH1 0x20 PUSH32 0xFFFFFFFFFFFFFFFFFFFFFFFFFFFFFFFFFFFFFFFFFFFFFFFFFFFFFFFFFFFFFFFC CALLDATASIZE ADD SLT PUSH2 0x2B1 JUMPI PUSH20 0xFFFFFFFFFFFFFFFFFFFFFFFFFFFFFFFFFFFFFFFF PUSH2 0x99D PUSH2 0xCEF JUMP JUMPDEST AND PUSH1 0x0 MSTORE PUSH1 0x5 PUSH1 0x20 MSTORE PUSH1 0x20 PUSH1 0x40 PUSH1 0x0 KECCAK256 SLOAD PUSH1 0x40 MLOAD SWAP1 DUP2 MSTORE RETURN JUMPDEST CALLVALUE PUSH2 0x2B1 JUMPI PUSH1 0x20 PUSH32 0xFFFFFFFFFFFFFFFFFFFFFFFFFFFFFFFFFFFFFFFFFFFFFFFFFFFFFFFFFFFFFFFC CALLDATASIZE ADD SLT PUSH2 0x2B1 JUMPI PUSH20 0xFFFFFFFFFFFFFFFFFFFFFFFFFFFFFFFFFFFFFFFF PUSH2 0xA02 PUSH2 0xCEF JUMP JUMPDEST AND PUSH1 0x0 MSTORE PUSH1 0x6 PUSH1 0x20 MSTORE PUSH1 0x20 PUSH1 0x40 PUSH1 0x0 KECCAK256 SLOAD PUSH1 0x40 MLOAD SWAP1 DUP2 MSTORE RETURN JUMPDEST CALLVALUE PUSH2 0x2B1 JUMPI PUSH1 0x0 PUSH32 0xFFFFFFFFFFFFFFFFFFFFFFFFFFFFFFFFFFFFFFFFFFFFFFFFFFFFFFFFFFFFFFFC CALLDATASIZE ADD SLT PUSH2 0x2B1 JUMPI PUSH20 0xFFFFFFFFFFFFFFFFFFFFFFFFFFFFFFFFFFFFFFFF PUSH1 0x3 SLOAD AND CALLER SUB PUSH2 0x2B1 JUMPI PUSH1 0x0 PUSH1 0x4 SSTORE STOP JUMPDEST CALLVALUE PUSH2 0x2B1 JUMPI PUSH1 0x20 PUSH32 0xFFFFFFFFFFFFFFFFFFFFFFFFFFFFFFFFFFFFFFFFFFFFFFFFFFFFFFFFFFFFFFFC CALLDATASIZE ADD SLT PUSH2 0x2B1 JUMPI PUSH1 0x4 CALLDATALOAD PUSH3 0x4C4B40 DUP2 LT PUSH2 0xBF2 JUMPI PUSH1 0x40 MLOAD PUSH32 0x23B872DD00000000000000000000000000000000000000000000000000000000 DUP2 MSTORE CALLER PUSH1 0x4 DUP3 ADD MSTORE ADDRESS PUSH1 0x24 DUP3 ADD MSTORE PUSH1 0x44 DUP2 ADD DUP3 SWAP1 MSTORE PUSH1 0x20 DUP2 PUSH1 0x64 DUP2 PUSH1 0x0 PUSH32 0x0 PUSH20 0xFFFFFFFFFFFFFFFFFFFFFFFFFFFFFFFFFFFFFFFF AND GAS CALL SWAP1 DUP2 ISZERO PUSH2 0x37E JUMPI PUSH1 0x0 SWAP2 PUSH2 0xBD3 JUMPI JUMPDEST POP ISZERO PUSH2 0x2B1 JUMPI PUSH2 0xB47 DUP2 PUSH1 0x2 SLOAD PUSH2 0xDD0 JUMP JUMPDEST PUSH1 0x2 SSTORE PUSH2 0xB56 DUP2 PUSH1 0x1 SLOAD PUSH2 0xDD0 JUMP JUMPDEST PUSH1 0x1 SSTORE PUSH1 0x32 DUP2 MUL SWAP1 DUP1 DUP3 DIV PUSH1 0x32 EQ SWAP1 ISZERO OR ISZERO PUSH2 0xBA4 JUMPI CALLER PUSH1 0x0 MSTORE PUSH1 0x5 PUSH1 0x20 MSTORE DUP1 PUSH1 0x40 PUSH1 0x0 KECCAK256 SSTORE CALLER PUSH32 0x170A2F20525ADE9B15F6A5B687B073BF13551AA056EB05F8686FFBB9E4AB895C PUSH1 0x0 DUP1 LOG3 STOP JUMPDEST PUSH32 0x4E487B7100000000000000000000000000000000000000000000000000000000 PUSH1 0x0 MSTORE PUSH1 0x11 PUSH1 0x4 MSTORE PUSH1 0x24 PUSH1 0x0 REVERT JUMPDEST PUSH2 0xBEC SWAP2 POP PUSH1 0x20 RETURNDATASIZE PUSH1 0x20 GT PUSH2 0x377 JUMPI PUSH2 0x369 DUP2 DUP4 PUSH2 0xD77 JUMP JUMPDEST DUP3 PUSH2 0xB35 JUMP JUMPDEST PUSH1 0x64 PUSH1 0x40 MLOAD PUSH32 0x8C379A000000000000000000000000000000000000000000000000000000000 DUP2 MSTORE PUSH1 0x20 PUSH1 0x4 DUP3 ADD MSTORE PUSH1 0xB PUSH1 0x24 DUP3 ADD MSTORE PUSH32 0x66656520746F6F206C6F77000000000000000000000000000000000000000000 PUSH1 0x44 DUP3 ADD MSTORE REVERT JUMPDEST CALLVALUE PUSH2 0x2B1 JUMPI PUSH1 0x40 PUSH32 0xFFFFFFFFFFFFFFFFFFFFFFFFFFFFFFFFFFFFFFFFFFFFFFFFFFFFFFFFFFFFFFFC CALLDATASIZE ADD SLT PUSH2 0x2B1 JUMPI PUSH1 0x24 CALLDATALOAD PUSH2 0xCA5 PUSH20 0xFFFFFFFFFFFFFFFFFFFFFFFFFFFFFFFFFFFFFFFF PUSH1 0x3 SLOAD AND CALLER EQ PUSH2 0xD12 JUMP JUMPDEST PUSH1 0x0 SLOAD PUSH1 0x4 CALLDATALOAD EQ DUP1 PUSH2 0xCE2 JUMPI JUMPDEST ISZERO PUSH2 0x2B1 JUMPI DUP1 PUSH1 0x0 SSTORE PUSH32 0x9B831DCBEC52DFE52B187DA18AAE08651DFB726E9BAF49D5D9EAE6FA264DB3A1 PUSH1 0x0 DUP1 LOG2 STOP JUMPDEST POP PUSH3 0x4C4B40 DUP2 LT ISZERO PUSH2 0xCB2 JUMP JUMPDEST PUSH1 0x4 CALLDATALOAD SWAP1 PUSH20 0xFFFFFFFFFFFFFFFFFFFFFFFFFFFFFFFFFFFFFFFF DUP3 AND DUP3 SUB PUSH2 0x2B1 JUMPI JUMP JUMPDEST ISZERO PUSH2 0xD19 JUMPI JUMP JUMPDEST PUSH1 0x64 PUSH1 0x40 MLOAD PUSH32 0x8C379A000000000000000000000000000000000000000000000000000000000 DUP2 MSTORE PUSH1 0x20 PUSH1 0x4 DUP3 ADD MSTORE PUSH1 0xD PUSH1 0x24 DUP3 ADD MSTORE PUSH32 0x6E6F7420746865206D616B657200000000000000000000000000000000000000 PUSH1 0x44 DUP3 ADD MSTORE REVERT JUMPDEST SWAP1 PUSH1 0x1F PUSH32 0xFFFFFFFFFFFFFFFFFFFFFFFFFFFFFFFFFFFFFFFFFFFFFFFFFFFFFFFFFFFFFFE0 SWAP2 ADD AND DUP2 ADD SWAP1 DUP2 LT PUSH8 0xFFFFFFFFFFFFFFFF DUP3 GT OR PUSH2 0x83E JUMPI PUSH1 0x40 MSTORE JUMP JUMPDEST SWAP1 DUP2 PUSH1 0x20 SWAP2 SUB SLT PUSH2 0x2B1 JUMPI MLOAD DUP1 ISZERO ISZERO DUP2 SUB PUSH2 0x2B1 JUMPI SWAP1 JUMP JUMPDEST SWAP2 SWAP1 DUP3 ADD DUP1 SWAP3 GT PUSH2 0xBA4 JUMPI JUMP JUMPDEST SWAP2 SWAP1 DUP3 SUB SWAP2 DUP3 GT PUSH2 0xBA4 JUMPI JUMP JUMPDEST PUSH32 0xFFFFFFFFFFFFFFFFFFFFFFFFFFFFFFFFFFFFFFFFFFFFFFFFFFFFFFFFFFFFFFFF DUP2 EQ PUSH2 0xBA4 JUMPI PUSH1 0x1 ADD SWAP1 JUMP JUMPDEST SWAP2 SWAP1 DUP2 LT ISZERO PUSH2 0xE27 JUMPI PUSH1 0x5 SHL ADD SWAP1 JUMP JUMPDEST PUSH32 0x4E487B7100000000000000000000000000000000000000000000000000000000 PUSH1 0x0 MSTORE PUSH1 0x32 PUSH1 0x4 MSTORE PUSH1 0x24 PUSH1 0x0 REVERT JUMPDEST CALLDATALOAD PUSH20 0xFFFFFFFFFFFFFFFFFFFFFFFFFFFFFFFFFFFFFFFF DUP2 AND DUP2 SUB PUSH2 0x2B1 JUMPI SWAP1 JUMP INVALID LOG2 PUSH5 0x6970667358 0x22 SLT KECCAK256 MSIZE MUL LT 0xC0 0xE8 LOG1 0xEB 0xEB 0x2D SHR 0x2B PREVRANDAO 0x1F 0x4B KECCAK256 SWAP6 PUSH12 0xB288FB074C749BB08348F84F 0xA9 SIGNEXTEND 0xDD PUSH5 0x736F6C6343 STOP ADDMOD SHL STOP CALLER "
        },
        "methodIdentifiers": {
          "buyCredits(uint256)": "0c4dfe3f",
          "configRate(uint256,uint256)": "0423a847",
          "createBounties(address,uint256,uint256)": "745ef5ed",
          "deprecate()": "0fcc0c28",
          "payBounty(address[],address,uint256)": "d6d25b5c",
          "pullFunds(address,uint256)": "c6cdbcbb",
          "reinit()": "c482ceaf",
          "subscription(address)": "4ef47cf1",
          "taskList(address)": "2cc1dece"
        }
      }
    }
  }
}